{
  "address": "0xab48D3707732DF21071F0A1F882e7d968174A840",
  "abi": [
    {
      "inputs": [
        {
          "internalType": "address",
          "name": "_token",
          "type": "address"
        },
        {
          "internalType": "address",
          "name": "initialOwner",
          "type": "address"
        }
      ],
      "stateMutability": "nonpayable",
      "type": "constructor"
    },
    {
      "inputs": [],
      "name": "EnforcedPause",
      "type": "error"
    },
    {
      "inputs": [],
      "name": "ExpectedPause",
      "type": "error"
    },
    {
      "inputs": [
        {
          "internalType": "address",
          "name": "owner",
          "type": "address"
        }
      ],
      "name": "OwnableInvalidOwner",
      "type": "error"
    },
    {
      "inputs": [
        {
          "internalType": "address",
          "name": "account",
          "type": "address"
        }
      ],
      "name": "OwnableUnauthorizedAccount",
      "type": "error"
    },
    {
      "inputs": [],
      "name": "ReentrancyGuardReentrantCall",
      "type": "error"
    },
    {
      "anonymous": false,
      "inputs": [
        {
          "indexed": true,
          "internalType": "address",
          "name": "sender",
          "type": "address"
        },
        {
          "indexed": false,
          "internalType": "uint256",
          "name": "amount",
          "type": "uint256"
        }
      ],
      "name": "Deposit",
      "type": "event"
    },
    {
      "anonymous": false,
      "inputs": [
        {
          "indexed": true,
          "internalType": "address",
          "name": "from",
          "type": "address"
        },
        {
          "indexed": true,
          "internalType": "address",
          "name": "to",
          "type": "address"
        },
        {
          "indexed": false,
          "internalType": "uint256",
          "name": "amount",
          "type": "uint256"
        }
      ],
      "name": "FallbackTransfer",
      "type": "event"
    },
    {
      "anonymous": false,
      "inputs": [
        {
          "indexed": true,
          "internalType": "address",
          "name": "sender",
          "type": "address"
        },
        {
          "indexed": true,
          "internalType": "address",
          "name": "fallbackWallet",
          "type": "address"
        }
      ],
      "name": "FallbackWalletSet",
      "type": "event"
    },
    {
      "anonymous": false,
      "inputs": [
        {
          "indexed": true,
          "internalType": "address",
          "name": "previousOwner",
          "type": "address"
        },
        {
          "indexed": true,
          "internalType": "address",
          "name": "newOwner",
          "type": "address"
        }
      ],
      "name": "OwnershipTransferred",
      "type": "event"
    },
    {
      "anonymous": false,
      "inputs": [
        {
          "indexed": false,
          "internalType": "address",
          "name": "account",
          "type": "address"
        }
      ],
      "name": "Paused",
      "type": "event"
    },
    {
      "anonymous": false,
      "inputs": [
        {
          "indexed": true,
          "internalType": "address",
          "name": "sender",
          "type": "address"
        },
        {
          "indexed": false,
          "internalType": "uint256",
          "name": "timestamp",
          "type": "uint256"
        }
      ],
      "name": "ProofOfLifeUpdated",
      "type": "event"
    },
    {
      "anonymous": false,
      "inputs": [
        {
          "indexed": false,
          "internalType": "address",
          "name": "account",
          "type": "address"
        }
      ],
      "name": "Unpaused",
      "type": "event"
    },
    {
      "anonymous": false,
      "inputs": [
        {
          "indexed": true,
          "internalType": "address",
          "name": "sender",
          "type": "address"
        },
        {
          "indexed": false,
          "internalType": "uint256",
          "name": "amount",
          "type": "uint256"
        }
      ],
      "name": "Withdrawal",
      "type": "event"
    },
    {
      "inputs": [],
      "name": "MIN_FALLBACK_PERIOD",
      "outputs": [
        {
          "internalType": "uint256",
          "name": "",
          "type": "uint256"
        }
      ],
      "stateMutability": "view",
      "type": "function"
    },
    {
      "inputs": [
        {
          "internalType": "address",
          "name": "",
          "type": "address"
        }
      ],
      "name": "balances",
      "outputs": [
        {
          "internalType": "uint256",
          "name": "",
          "type": "uint256"
        }
      ],
      "stateMutability": "view",
      "type": "function"
    },
    {
      "inputs": [
        {
          "internalType": "uint256",
          "name": "_amount",
          "type": "uint256"
        }
      ],
      "name": "deposit",
      "outputs": [],
      "stateMutability": "nonpayable",
      "type": "function"
    },
    {
      "inputs": [
        {
          "internalType": "address",
          "name": "",
          "type": "address"
        }
      ],
      "name": "fallbackWallets",
      "outputs": [
        {
          "internalType": "address",
          "name": "",
          "type": "address"
        }
      ],
      "stateMutability": "view",
      "type": "function"
    },
    {
      "inputs": [
        {
          "internalType": "address",
          "name": "_user",
          "type": "address"
        }
      ],
      "name": "getTransactionHistory",
      "outputs": [
        {
          "components": [
            {
              "internalType": "uint256",
              "name": "date",
              "type": "uint256"
            },
            {
              "internalType": "uint256",
              "name": "amount",
              "type": "uint256"
            },
            {
              "internalType": "string",
              "name": "txType",
              "type": "string"
            }
          ],
          "internalType": "struct Retirement.Transaction[]",
          "name": "",
          "type": "tuple[]"
        }
      ],
      "stateMutability": "view",
      "type": "function"
    },
    {
      "inputs": [
        {
          "internalType": "address",
          "name": "",
          "type": "address"
        }
      ],
      "name": "lastProofOfLife",
      "outputs": [
        {
          "internalType": "uint256",
          "name": "",
          "type": "uint256"
        }
      ],
      "stateMutability": "view",
      "type": "function"
    },
    {
      "inputs": [],
      "name": "owner",
      "outputs": [
        {
          "internalType": "address",
          "name": "",
          "type": "address"
        }
      ],
      "stateMutability": "view",
      "type": "function"
    },
    {
      "inputs": [],
      "name": "pause",
      "outputs": [],
      "stateMutability": "nonpayable",
      "type": "function"
    },
    {
      "inputs": [],
      "name": "paused",
      "outputs": [
        {
          "internalType": "bool",
          "name": "",
          "type": "bool"
        }
      ],
      "stateMutability": "view",
      "type": "function"
    },
    {
      "inputs": [],
      "name": "renounceOwnership",
      "outputs": [],
      "stateMutability": "nonpayable",
      "type": "function"
    },
    {
      "inputs": [
        {
          "internalType": "address",
          "name": "_fallbackWallet",
          "type": "address"
        }
      ],
      "name": "setFallbackWallet",
      "outputs": [],
      "stateMutability": "nonpayable",
      "type": "function"
    },
    {
      "inputs": [],
      "name": "token",
      "outputs": [
        {
          "internalType": "contract IERC20",
          "name": "",
          "type": "address"
        }
      ],
      "stateMutability": "view",
      "type": "function"
    },
    {
      "inputs": [
        {
          "internalType": "address",
          "name": "",
          "type": "address"
        },
        {
          "internalType": "uint256",
          "name": "",
          "type": "uint256"
        }
      ],
      "name": "transactionHistory",
      "outputs": [
        {
          "internalType": "uint256",
          "name": "date",
          "type": "uint256"
        },
        {
          "internalType": "uint256",
          "name": "amount",
          "type": "uint256"
        },
        {
          "internalType": "string",
          "name": "txType",
          "type": "string"
        }
      ],
      "stateMutability": "view",
      "type": "function"
    },
    {
      "inputs": [
        {
          "internalType": "address",
          "name": "newOwner",
          "type": "address"
        }
      ],
      "name": "transferOwnership",
      "outputs": [],
      "stateMutability": "nonpayable",
      "type": "function"
    },
    {
      "inputs": [
        {
          "internalType": "address",
          "name": "_user",
          "type": "address"
        }
      ],
      "name": "transferToFallback",
      "outputs": [],
      "stateMutability": "nonpayable",
      "type": "function"
    },
    {
      "inputs": [],
      "name": "unpause",
      "outputs": [],
      "stateMutability": "nonpayable",
      "type": "function"
    },
    {
      "inputs": [],
      "name": "updateProofOfLife",
      "outputs": [],
      "stateMutability": "nonpayable",
      "type": "function"
    },
    {
      "inputs": [
        {
          "internalType": "uint256",
          "name": "_amount",
          "type": "uint256"
        }
      ],
      "name": "withdraw",
      "outputs": [],
      "stateMutability": "nonpayable",
      "type": "function"
    }
  ],
  "transactionHash": "0x42d1b4e11616a732f698f4ec93fff2302553b434e3ac0f2b70b439ff279b7c49",
  "args": [
    "0x4bB24185e5e0e80A92f5730BA78990aA60854e77",
    "0xDFbE6c0A54F9f4f758753aE56eDD02Dd92C29be3"
  ],
  "numDeployments": 1,
  "solcInputHash": "5dbdf6f29fbf445998bec8f1f230f07f",
  "bytecode": "0x60a060405234801561001057600080fd5b50604051620012e9380380620012e9833981016040819052610031916100fc565b6001600055806001600160a01b03811661006557604051631e4fbdf760e01b81526000600482015260240160405180910390fd5b61006e8161008e565b50506001805460ff60a01b191690556001600160a01b031660805261012f565b600180546001600160a01b038381166001600160a01b0319831681179093556040519116919082907f8be0079c531659141344cd1fd0a4f28419497f9722a3daafe3b4186f6b6457e090600090a35050565b80516001600160a01b03811681146100f757600080fd5b919050565b6000806040838503121561010f57600080fd5b610118836100e0565b9150610126602084016100e0565b90509250929050565b60805161118962000160600039600081816102af015281816103cc0152818161061e01526108ae01526111896000f3fe608060405234801561001057600080fd5b50600436106101165760003560e01c8063a79e3353116100a2578063cfc6cdaa11610071578063cfc6cdaa14610242578063d20cf0e814610255578063e3abc2bc14610275578063f2fde38b14610297578063fc0c546a146102aa57600080fd5b8063a79e3353146101f4578063b6b55f2514610207578063c80cc4111461021a578063cf80666b1461022257600080fd5b80635c975abb116100e95780635c975abb14610175578063715018a6146101925780638456cb591461019a5780638c6b64ff146101a25780638da5cb5b146101e357600080fd5b806327e235e31461011b5780632e1a7d4d1461014e5780633a44a3e4146101635780633f4ba83a1461016d575b600080fd5b61013b610129366004610e42565b60026020526000908152604090205481565b6040519081526020015b60405180910390f35b61016161015c366004610e64565b6102d1565b005b61013b6276a70081565b6101616104bb565b600154600160a01b900460ff166040519015158152602001610145565b6101616104cd565b6101616104df565b6101cb6101b0366004610e42565b6004602052600090815260409020546001600160a01b031681565b6040516001600160a01b039091168152602001610145565b6001546001600160a01b03166101cb565b610161610202366004610e42565b6104ef565b610161610215366004610e64565b61059c565b61016161071e565b61013b610230366004610e42565b60036020526000908152604090205481565b610161610250366004610e42565b61072f565b610268610263366004610e42565b6109ab565b6040516101459190610ec3565b610288610283366004610f42565b610ac6565b60405161014593929190610f6c565b6101616102a5366004610e42565b610b95565b6101cb7f000000000000000000000000000000000000000000000000000000000000000081565b6102d9610bd0565b6102e1610bfa565b600081116103365760405162461bcd60e51b815260206004820152601d60248201527f416d6f756e74206d7573742062652067726561746572207468616e203000000060448201526064015b60405180910390fd5b3360009081526002602052604090205481111561038c5760405162461bcd60e51b8152602060048201526014602482015273496e73756666696369656e742062616c616e636560601b604482015260640161032d565b33600090815260026020526040812080548392906103ab908490610faa565b909155505060405163a9059cbb60e01b8152336004820152602481018290527f00000000000000000000000000000000000000000000000000000000000000006001600160a01b03169063a9059cbb906044016020604051808303816000875af115801561041d573d6000803e3d6000fd5b505050506040513d601f19601f820116820180604052508101906104419190610fc3565b5061044b33610c25565b61047833826040518060400160405280600a8152602001691dda5d1a191c985dd85b60b21b815250610c79565b60405181815233907f7fcf532c15f0a6db0bd6d0e038bea71d30d808c7d98cb3bf7268a95bf5081b65906020015b60405180910390a26104b86001600055565b50565b6104c3610ce5565b6104cb610d12565b565b6104d5610ce5565b6104cb6000610d67565b6104e7610ce5565b6104cb610db9565b6001600160a01b0381166105455760405162461bcd60e51b815260206004820152601760248201527f496e76616c69642066616c6c6261636b2077616c6c6574000000000000000000604482015260640161032d565b3360008181526004602052604080822080546001600160a01b0319166001600160a01b03861690811790915590519092917f76927486871c0fad2b9ae286f40dac7d8eb0877928d4f78600b95b9c6be403af91a350565b6105a4610bd0565b6105ac610bfa565b600081116105fc5760405162461bcd60e51b815260206004820152601d60248201527f416d6f756e74206d7573742062652067726561746572207468616e2030000000604482015260640161032d565b6040516323b872dd60e01b8152336004820152306024820152604481018290527f00000000000000000000000000000000000000000000000000000000000000006001600160a01b0316906323b872dd906064016020604051808303816000875af115801561066f573d6000803e3d6000fd5b505050506040513d601f19601f820116820180604052508101906106939190610fc3565b5033600090815260026020526040812080548392906106b3908490610fe5565b909155506106c2905033610c25565b6106ec33826040518060400160405280600781526020016619195c1bdcda5d60ca1b815250610c79565b60405181815233907fe1fffcc4923d04b559f4d29a8bfc6cda04eb5b0d3c460751c2402c5c5cc9109c906020016104a6565b610726610bfa565b6104cb33610c25565b610737610bd0565b61073f610bfa565b6001600160a01b038116600090815260036020526040902054610766906276a70090610fe5565b42116107b45760405162461bcd60e51b815260206004820152601b60248201527f46616c6c6261636b20706572696f64206e6f7420726561636865640000000000604482015260640161032d565b6001600160a01b0380821660009081526004602052604090205416806108155760405162461bcd60e51b8152602060048201526016602482015275139bc819985b1b189858dac81dd85b1b195d081cd95d60521b604482015260640161032d565b6001600160a01b038216600090815260026020526040902054806108745760405162461bcd60e51b81526020600482015260166024820152752737903130b630b731b2903a37903a3930b739b332b960511b604482015260640161032d565b6001600160a01b03838116600090815260026020526040808220919091555163a9059cbb60e01b81528382166004820152602481018390527f00000000000000000000000000000000000000000000000000000000000000009091169063a9059cbb906044016020604051808303816000875af11580156108f9573d6000803e3d6000fd5b505050506040513d601f19601f8201168201806040525081019061091d9190610fc3565b506109528382604051806040016040528060118152602001703330b6363130b1b5903a3930b739b332b960791b815250610c79565b816001600160a01b0316836001600160a01b03167f10f09ec6d36f298781f4757ef6f8fc8c8699836238f08c102601ff7953ccb1f08360405161099791815260200190565b60405180910390a350506104b86001600055565b6001600160a01b0381166000908152600560209081526040808320805482518185028101850190935280835260609492939192909184015b82821015610abb57838290600052602060002090600302016040518060600160405290816000820154815260200160018201548152602001600282018054610a2a90610ff8565b80601f0160208091040260200160405190810160405280929190818152602001828054610a5690610ff8565b8015610aa35780601f10610a7857610100808354040283529160200191610aa3565b820191906000526020600020905b815481529060010190602001808311610a8657829003601f168201915b505050505081525050815260200190600101906109e3565b505050509050919050565b60056020528160005260406000208181548110610ae257600080fd5b906000526020600020906003020160009150915050806000015490806001015490806002018054610b1290610ff8565b80601f0160208091040260200160405190810160405280929190818152602001828054610b3e90610ff8565b8015610b8b5780601f10610b6057610100808354040283529160200191610b8b565b820191906000526020600020905b815481529060010190602001808311610b6e57829003601f168201915b5050505050905083565b610b9d610ce5565b6001600160a01b038116610bc757604051631e4fbdf760e01b81526000600482015260240161032d565b6104b881610d67565b600260005403610bf357604051633ee5aeb560e01b815260040160405180910390fd5b6002600055565b600154600160a01b900460ff16156104cb5760405163d93c066560e01b815260040160405180910390fd5b6001600160a01b038116600081815260036020908152604091829020429081905591519182527f56a834f5edf7bcded1fc653853b3f2e9d181d08e3ee121a535fd50a8e5ef4298910160405180910390a250565b6001600160a01b0383166000908152600560209081526040808320815160608101835242815280840187815292810186815282546001818101855593875294909520815160039095020193845591519083015591516002820190610cdd9082611093565b505050505050565b6001546001600160a01b031633146104cb5760405163118cdaa760e01b815233600482015260240161032d565b610d1a610dfc565b6001805460ff60a01b191690557f5db9ee0a495bf2e6ff9c91a7834c1ba4fdd244a5e8aa4e537bd38aeae4b073aa335b6040516001600160a01b03909116815260200160405180910390a1565b600180546001600160a01b038381166001600160a01b0319831681179093556040519116919082907f8be0079c531659141344cd1fd0a4f28419497f9722a3daafe3b4186f6b6457e090600090a35050565b610dc1610bfa565b6001805460ff60a01b1916600160a01b1790557f62e78cea01bee320cd4e420270b5ea74000d11b0c9f74754ebdbfc544b05a258610d4a3390565b600154600160a01b900460ff166104cb57604051638dfc202b60e01b815260040160405180910390fd5b80356001600160a01b0381168114610e3d57600080fd5b919050565b600060208284031215610e5457600080fd5b610e5d82610e26565b9392505050565b600060208284031215610e7657600080fd5b5035919050565b6000815180845260005b81811015610ea357602081850181015186830182015201610e87565b506000602082860101526020601f19601f83011685010191505092915050565b60006020808301818452808551808352604092508286019150828160051b87010184880160005b83811015610f3457888303603f1901855281518051845287810151888501528601516060878501819052610f2081860183610e7d565b968901969450505090860190600101610eea565b509098975050505050505050565b60008060408385031215610f5557600080fd5b610f5e83610e26565b946020939093013593505050565b838152826020820152606060408201526000610f8b6060830184610e7d565b95945050505050565b634e487b7160e01b600052601160045260246000fd5b81810381811115610fbd57610fbd610f94565b92915050565b600060208284031215610fd557600080fd5b81518015158114610e5d57600080fd5b80820180821115610fbd57610fbd610f94565b600181811c9082168061100c57607f821691505b60208210810361102c57634e487b7160e01b600052602260045260246000fd5b50919050565b634e487b7160e01b600052604160045260246000fd5b601f82111561108e57600081815260208120601f850160051c8101602086101561106f5750805b601f850160051c820191505b81811015610cdd5782815560010161107b565b505050565b815167ffffffffffffffff8111156110ad576110ad611032565b6110c1816110bb8454610ff8565b84611048565b602080601f8311600181146110f657600084156110de5750858301515b600019600386901b1c1916600185901b178555610cdd565b600085815260208120601f198616915b8281101561112557888601518255948401946001909101908401611106565b50858210156111435787850151600019600388901b60f8161c191681555b5050505050600190811b0190555056fea2646970667358221220df313445a570b5c88005f28627a2f61603fcce2056f4e85cc028333b1462b89864736f6c63430008140033",
  "devdoc": {
    "errors": {
      "EnforcedPause()": [
        {
          "details": "The operation failed because the contract is paused."
        }
      ],
      "ExpectedPause()": [
        {
          "details": "The operation failed because the contract is not paused."
        }
      ],
      "OwnableInvalidOwner(address)": [
        {
          "details": "The owner is not a valid owner account. (eg. `address(0)`)"
        }
      ],
      "OwnableUnauthorizedAccount(address)": [
        {
          "details": "The caller account is not authorized to perform an operation."
        }
      ],
      "ReentrancyGuardReentrantCall()": [
        {
          "details": "Unauthorized reentrant call."
        }
      ]
    },
    "events": {
      "Paused(address)": {
        "details": "Emitted when the pause is triggered by `account`."
      },
      "Unpaused(address)": {
        "details": "Emitted when the pause is lifted by `account`."
      }
    },
    "kind": "dev",
    "methods": {
      "owner()": {
        "details": "Returns the address of the current owner."
      },
      "paused()": {
        "details": "Returns true if the contract is paused, and false otherwise."
      },
      "renounceOwnership()": {
        "details": "Leaves the contract without owner. It will not be possible to call `onlyOwner` functions. Can only be called by the current owner. NOTE: Renouncing ownership will leave the contract without an owner, thereby disabling any functionality that is only available to the owner."
      },
      "transferOwnership(address)": {
        "details": "Transfers ownership of the contract to a new account (`newOwner`). Can only be called by the current owner."
      }
    },
    "version": 1
  },
  "userdoc": {
    "kind": "user",
    "methods": {},
    "version": 1
  },
  "storageLayout": {
    "storage": [
      {
        "astId": 1061,
        "contract": "contracts/Retirement.sol:Retirement",
        "label": "_status",
        "offset": 0,
        "slot": "0",
        "type": "t_uint256"
      },
      {
        "astId": 8,
        "contract": "contracts/Retirement.sol:Retirement",
        "label": "_owner",
        "offset": 0,
        "slot": "1",
        "type": "t_address"
      },
      {
        "astId": 942,
        "contract": "contracts/Retirement.sol:Retirement",
        "label": "_paused",
        "offset": 20,
        "slot": "1",
        "type": "t_bool"
      },
      {
        "astId": 1145,
        "contract": "contracts/Retirement.sol:Retirement",
        "label": "balances",
        "offset": 0,
        "slot": "2",
        "type": "t_mapping(t_address,t_uint256)"
      },
      {
        "astId": 1149,
        "contract": "contracts/Retirement.sol:Retirement",
        "label": "lastProofOfLife",
        "offset": 0,
        "slot": "3",
        "type": "t_mapping(t_address,t_uint256)"
      },
      {
        "astId": 1153,
        "contract": "contracts/Retirement.sol:Retirement",
        "label": "fallbackWallets",
        "offset": 0,
        "slot": "4",
        "type": "t_mapping(t_address,t_address)"
      },
      {
        "astId": 1159,
        "contract": "contracts/Retirement.sol:Retirement",
        "label": "transactionHistory",
        "offset": 0,
        "slot": "5",
        "type": "t_mapping(t_address,t_array(t_struct(Transaction)1141_storage)dyn_storage)"
      }
    ],
    "types": {
      "t_address": {
        "encoding": "inplace",
        "label": "address",
        "numberOfBytes": "20"
      },
      "t_array(t_struct(Transaction)1141_storage)dyn_storage": {
        "base": "t_struct(Transaction)1141_storage",
        "encoding": "dynamic_array",
        "label": "struct Retirement.Transaction[]",
        "numberOfBytes": "32"
      },
      "t_bool": {
        "encoding": "inplace",
        "label": "bool",
        "numberOfBytes": "1"
      },
      "t_mapping(t_address,t_address)": {
        "encoding": "mapping",
        "key": "t_address",
        "label": "mapping(address => address)",
        "numberOfBytes": "32",
        "value": "t_address"
      },
      "t_mapping(t_address,t_array(t_struct(Transaction)1141_storage)dyn_storage)": {
        "encoding": "mapping",
        "key": "t_address",
        "label": "mapping(address => struct Retirement.Transaction[])",
        "numberOfBytes": "32",
        "value": "t_array(t_struct(Transaction)1141_storage)dyn_storage"
      },
      "t_mapping(t_address,t_uint256)": {
        "encoding": "mapping",
        "key": "t_address",
        "label": "mapping(address => uint256)",
        "numberOfBytes": "32",
        "value": "t_uint256"
      },
      "t_string_storage": {
        "encoding": "bytes",
        "label": "string",
        "numberOfBytes": "32"
      },
      "t_struct(Transaction)1141_storage": {
        "encoding": "inplace",
        "label": "struct Retirement.Transaction",
        "members": [
          {
            "astId": 1136,
            "contract": "contracts/Retirement.sol:Retirement",
            "label": "date",
            "offset": 0,
            "slot": "0",
            "type": "t_uint256"
          },
          {
            "astId": 1138,
            "contract": "contracts/Retirement.sol:Retirement",
            "label": "amount",
            "offset": 0,
            "slot": "1",
            "type": "t_uint256"
          },
          {
            "astId": 1140,
            "contract": "contracts/Retirement.sol:Retirement",
            "label": "txType",
            "offset": 0,
            "slot": "2",
            "type": "t_string_storage"
          }
        ],
        "numberOfBytes": "96"
      },
      "t_uint256": {
        "encoding": "inplace",
        "label": "uint256",
        "numberOfBytes": "32"
      }
    }
  }
}